{
  "contractName": "CourseManager",
  "abi": [
    {
      "inputs": [
        {
          "internalType": "address",
          "name": "_eduTokenAddress",
          "type": "address"
        }
      ],
      "stateMutability": "nonpayable",
      "type": "constructor"
    },
    {
      "anonymous": false,
      "inputs": [
        {
          "indexed": false,
          "internalType": "uint256",
          "name": "courseId",
          "type": "uint256"
        },
        {
          "indexed": false,
          "internalType": "address",
          "name": "student",
          "type": "address"
        }
      ],
      "name": "CourseCompleted",
      "type": "event"
    },
    {
      "anonymous": false,
      "inputs": [
        {
          "indexed": false,
          "internalType": "uint256",
          "name": "courseId",
          "type": "uint256"
        },
        {
          "indexed": false,
          "internalType": "string",
          "name": "name",
          "type": "string"
        },
        {
          "indexed": false,
          "internalType": "address",
          "name": "educator",
          "type": "address"
        }
      ],
      "name": "CourseCreated",
      "type": "event"
    },
    {
      "anonymous": false,
      "inputs": [
        {
          "indexed": false,
          "internalType": "uint256",
          "name": "courseId",
          "type": "uint256"
        },
        {
          "indexed": false,
          "internalType": "address",
          "name": "student",
          "type": "address"
        }
      ],
      "name": "CourseEnrollment",
      "type": "event"
    },
    {
      "inputs": [],
      "name": "courseCount",
      "outputs": [
        {
          "internalType": "uint256",
          "name": "",
          "type": "uint256"
        }
      ],
      "stateMutability": "view",
      "type": "function",
      "constant": true
    },
    {
      "inputs": [
        {
          "internalType": "uint256",
          "name": "",
          "type": "uint256"
        }
      ],
      "name": "courses",
      "outputs": [
        {
          "internalType": "string",
          "name": "name",
          "type": "string"
        },
        {
          "internalType": "address",
          "name": "educator",
          "type": "address"
        },
        {
          "internalType": "uint256",
          "name": "price",
          "type": "uint256"
        },
        {
          "internalType": "string",
          "name": "contentHash",
          "type": "string"
        },
        {
          "internalType": "bool",
          "name": "isActive",
          "type": "bool"
        }
      ],
      "stateMutability": "view",
      "type": "function",
      "constant": true
    },
    {
      "inputs": [],
      "name": "eduToken",
      "outputs": [
        {
          "internalType": "contract EduToken",
          "name": "",
          "type": "address"
        }
      ],
      "stateMutability": "view",
      "type": "function",
      "constant": true
    },
    {
      "inputs": [
        {
          "internalType": "uint256",
          "name": "",
          "type": "uint256"
        },
        {
          "internalType": "address",
          "name": "",
          "type": "address"
        }
      ],
      "name": "enrollments",
      "outputs": [
        {
          "internalType": "bool",
          "name": "isEnrolled",
          "type": "bool"
        },
        {
          "internalType": "uint256",
          "name": "enrollmentDate",
          "type": "uint256"
        },
        {
          "internalType": "bool",
          "name": "completed",
          "type": "bool"
        }
      ],
      "stateMutability": "view",
      "type": "function",
      "constant": true
    },
    {
      "inputs": [
        {
          "internalType": "string",
          "name": "name",
          "type": "string"
        },
        {
          "internalType": "uint256",
          "name": "price",
          "type": "uint256"
        },
        {
          "internalType": "string",
          "name": "contentHash",
          "type": "string"
        }
      ],
      "name": "createCourse",
      "outputs": [
        {
          "internalType": "uint256",
          "name": "",
          "type": "uint256"
        }
      ],
      "stateMutability": "nonpayable",
      "type": "function"
    },
    {
      "inputs": [
        {
          "internalType": "uint256",
          "name": "courseId",
          "type": "uint256"
        }
      ],
      "name": "enrollInCourse",
      "outputs": [],
      "stateMutability": "nonpayable",
      "type": "function"
    },
    {
      "inputs": [
        {
          "internalType": "uint256",
          "name": "courseId",
          "type": "uint256"
        },
        {
          "internalType": "address",
          "name": "student",
          "type": "address"
        }
      ],
      "name": "completeCourse",
      "outputs": [],
      "stateMutability": "nonpayable",
      "type": "function"
    }
  ],
  "bytecode": "0x608060405234801561001057600080fd5b50604051610d2e380380610d2e83398101604081905261002f91610054565b600080546001600160a01b0319166001600160a01b0392909216919091179055610084565b60006020828403121561006657600080fd5b81516001600160a01b038116811461007d57600080fd5b9392505050565b610c9b806100936000396000f3fe608060405234801561001057600080fd5b506004361061007d5760003560e01c80638d8788891161005b5780638d878889146100c657806396f979d2146100f15780639d0475da14610115578063dfb804031461012857600080fd5b8063410f9338146100825780635e52da271461009757806366055159146100aa575b600080fd5b6100956100903660046108a0565b610184565b005b6100956100a53660046108dc565b6102da565b6100b360035481565b6040519081526020015b60405180910390f35b6000546100d9906001600160a01b031681565b6040516001600160a01b0390911681526020016100bd565b6101046100ff3660046108dc565b61059f565b6040516100bd95949392919061093b565b6100b3610123366004610a2e565b6106ee565b6101656101363660046108a0565b6002602081815260009384526040808520909152918352912080546001820154919092015460ff928316921683565b60408051931515845260208401929092521515908201526060016100bd565b600082815260016020819052604090912001546001600160a01b031633146101f35760405162461bcd60e51b815260206004820152601760248201527f4e6f742074686520636f75727365206564756361746f7200000000000000000060448201526064015b60405180910390fd5b60008281526002602090815260408083206001600160a01b038516845290915290205460ff1661025c5760405162461bcd60e51b815260206004820152601460248201527314dd1d59195b9d081b9bdd08195b9c9bdb1b195960621b60448201526064016101ea565b60008281526002602081815260408084206001600160a01b03861685529091529182902001805460ff19166001179055517f5bc083177651ab30489541022f7c6061da5d7d2157ea382267ea584eac645782906102ce90849084909182526001600160a01b0316602082015260400190565b60405180910390a15050565b60005460405163417be9c960e11b81523360048201526001600160a01b03909116906382f7d39290602401602060405180830381865afa158015610322573d6000803e3d6000fd5b505050506040513d601f19601f820116820180604052508101906103469190610a9b565b6103825760405162461bcd60e51b815260206004820152600d60248201526c139bdd0818481cdd1d59195b9d609a1b60448201526064016101ea565b60008181526001602052604090206004015460ff166103d75760405162461bcd60e51b8152602060048201526011602482015270436f75727365206e6f742061637469766560781b60448201526064016101ea565b600081815260026020908152604080832033845290915290205460ff16156104345760405162461bcd60e51b815260206004820152601060248201526f105b1c9958591e48195b9c9bdb1b195960821b60448201526064016101ea565b60008181526001602081905260408083206002810154935492015490516323b872dd60e01b81523360048201526001600160a01b039182166024820152604481018490529116906323b872dd906064016020604051808303816000875af11580156104a3573d6000803e3d6000fd5b505050506040513d601f19601f820116820180604052508101906104c79190610a9b565b61050b5760405162461bcd60e51b8152602060048201526015602482015274151bdad95b881d1c985b9cd9995c8819985a5b1959605a1b60448201526064016101ea565b6040805160608101825260018082524260208084019182526000848601818152888252600280845287832033808552908552928890209651875490151560ff1991821617885594519587019590955551949093018054941515949092169390931790558251858152918201527feb6a967bb56534131f25362df334c81fd66a80398cbef8eecabc2f339ede103c91016102ce565b6001602052600090815260409020805481906105ba90610ac4565b80601f01602080910402602001604051908101604052809291908181526020018280546105e690610ac4565b80156106335780601f1061060857610100808354040283529160200191610633565b820191906000526020600020905b81548152906001019060200180831161061657829003601f168201915b505050506001830154600284015460038501805494956001600160a01b03909316949193509061066290610ac4565b80601f016020809104026020016040519081016040528092919081815260200182805461068e90610ac4565b80156106db5780601f106106b0576101008083540402835291602001916106db565b820191906000526020600020905b8154815290600101906020018083116106be57829003601f168201915b5050506004909301549192505060ff1685565b60008054604051636e5cc4a360e01b81523360048201526001600160a01b0390911690636e5cc4a390602401602060405180830381865afa158015610737573d6000803e3d6000fd5b505050506040513d601f19601f8201168201806040525081019061075b9190610a9b565b6107995760405162461bcd60e51b815260206004820152600f60248201526e2737ba1030b71032b23ab1b0ba37b960891b60448201526064016101ea565b600380549060006107a983610afe565b90915550506040805160a08101825285815233602080830191909152818301869052606082018590526001608083018190526003546000908152915291909120815181906107f79082610b74565b5060208201516001820180546001600160a01b0319166001600160a01b03909216919091179055604082015160028201556060820151600382019061083c9082610b74565b50608091909101516004909101805460ff19169115159190911790556003546040517fdb3fafffbb284e95f813ac0a83dbcafbbe522f0facb2ca6ed137fb6b807f31499161088d9187903390610c34565b60405180910390a1506003549392505050565b600080604083850312156108b357600080fd5b8235915060208301356001600160a01b03811681146108d157600080fd5b809150509250929050565b6000602082840312156108ee57600080fd5b5035919050565b6000815180845260005b8181101561091b576020818501810151868301820152016108ff565b506000602082860101526020601f19601f83011685010191505092915050565b60a08152600061094e60a08301886108f5565b6001600160a01b038716602084015260408301869052828103606084015261097681866108f5565b91505082151560808301529695505050505050565b634e487b7160e01b600052604160045260246000fd5b600082601f8301126109b257600080fd5b813567ffffffffffffffff808211156109cd576109cd61098b565b604051601f8301601f19908116603f011681019082821181831017156109f5576109f561098b565b81604052838152866020858801011115610a0e57600080fd5b836020870160208301376000602085830101528094505050505092915050565b600080600060608486031215610a4357600080fd5b833567ffffffffffffffff80821115610a5b57600080fd5b610a67878388016109a1565b9450602086013593506040860135915080821115610a8457600080fd5b50610a91868287016109a1565b9150509250925092565b600060208284031215610aad57600080fd5b81518015158114610abd57600080fd5b9392505050565b600181811c90821680610ad857607f821691505b602082108103610af857634e487b7160e01b600052602260045260246000fd5b50919050565b600060018201610b1e57634e487b7160e01b600052601160045260246000fd5b5060010190565b601f821115610b6f57600081815260208120601f850160051c81016020861015610b4c5750805b601f850160051c820191505b81811015610b6b57828155600101610b58565b5050505b505050565b815167ffffffffffffffff811115610b8e57610b8e61098b565b610ba281610b9c8454610ac4565b84610b25565b602080601f831160018114610bd75760008415610bbf5750858301515b600019600386901b1c1916600185901b178555610b6b565b600085815260208120601f198616915b82811015610c0657888601518255948401946001909101908401610be7565b5085821015610c245787850151600019600388901b60f8161c191681555b5050505050600190811b01905550565b838152606060208201526000610c4d60608301856108f5565b905060018060a01b038316604083015294935050505056fea2646970667358221220e23c20c08a556897c8a83eaa7a827454bd4206ff09ceeac2cc66456c4b6b664464736f6c63430008130033",
  "immutableReferences": {},
  "source": "// SPDX-License-Identifier: MIT\r\npragma solidity ^0.8.19;\r\n\r\nimport \"./EduToken.sol\";\r\n\r\ncontract CourseManager {\r\n    EduToken public eduToken;\r\n    \r\n    struct Course {\r\n        string name;\r\n        address educator;\r\n        uint256 price;\r\n        string contentHash; // IPFS hash of course content\r\n        bool isActive;\r\n    }\r\n    \r\n    struct Enrollment {\r\n        bool isEnrolled;\r\n        uint256 enrollmentDate;\r\n        bool completed;\r\n    }\r\n    \r\n    mapping(uint256 => Course) public courses;\r\n    mapping(uint256 => mapping(address => Enrollment)) public enrollments;\r\n    uint256 public courseCount;\r\n    \r\n    event CourseCreated(uint256 courseId, string name, address educator);\r\n    event CourseEnrollment(uint256 courseId, address student);\r\n    event CourseCompleted(uint256 courseId, address student);\r\n    \r\n    constructor(address _eduTokenAddress) {\r\n        eduToken = EduToken(_eduTokenAddress);\r\n    }\r\n    \r\n    function createCourse(\r\n        string memory name,\r\n        uint256 price,\r\n        string memory contentHash\r\n    ) external returns (uint256) {\r\n        require(eduToken.isEducator(msg.sender), \"Not an educator\");\r\n        \r\n        courseCount++;\r\n        courses[courseCount] = Course({\r\n            name: name,\r\n            educator: msg.sender,\r\n            price: price,\r\n            contentHash: contentHash,\r\n            isActive: true\r\n        });\r\n        \r\n        emit CourseCreated(courseCount, name, msg.sender);\r\n        return courseCount;\r\n    }\r\n    \r\n    function enrollInCourse(uint256 courseId) external {\r\n        require(eduToken.isStudent(msg.sender), \"Not a student\");\r\n        require(courses[courseId].isActive, \"Course not active\");\r\n        require(!enrollments[courseId][msg.sender].isEnrolled, \"Already enrolled\");\r\n        \r\n        uint256 coursePrice = courses[courseId].price;\r\n        require(\r\n            eduToken.transferFrom(msg.sender, courses[courseId].educator, coursePrice),\r\n            \"Token transfer failed\"\r\n        );\r\n        \r\n        enrollments[courseId][msg.sender] = Enrollment({\r\n            isEnrolled: true,\r\n            enrollmentDate: block.timestamp,\r\n            completed: false\r\n        });\r\n        \r\n        emit CourseEnrollment(courseId, msg.sender);\r\n    }\r\n    \r\n    function completeCourse(uint256 courseId, address student) external {\r\n        require(msg.sender == courses[courseId].educator, \"Not the course educator\");\r\n        require(enrollments[courseId][student].isEnrolled, \"Student not enrolled\");\r\n        \r\n        enrollments[courseId][student].completed = true;\r\n        emit CourseCompleted(courseId, student);\r\n    }\r\n}",
  "sourcePath": "C:\\Users\\GHOST\\OneDrive\\Desktop\\edu_tokkenv2\\contracts\\CourseManager.sol",
  "compiler": {
    "name": "solc",
    "version": "0.8.19+commit.7dd6d404.Emscripten.clang"
  },
  "schemaVersion": "3.4.16",
  "updatedAt": "2024-11-02T11:31:17.919Z",
  "networkType": "ethereum",
  "devdoc": {
    "kind": "dev",
    "methods": {},
    "version": 1
  },
  "userdoc": {
    "kind": "user",
    "methods": {},
    "version": 1
  }
}