{
  "contractName": "CourseNFT",
  "abi": [
    {
      "inputs": [],
      "stateMutability": "nonpayable",
      "type": "constructor"
    },
    {
      "anonymous": false,
      "inputs": [
        {
          "indexed": true,
          "internalType": "address",
          "name": "owner",
          "type": "address"
        },
        {
          "indexed": true,
          "internalType": "address",
          "name": "approved",
          "type": "address"
        },
        {
          "indexed": true,
          "internalType": "uint256",
          "name": "tokenId",
          "type": "uint256"
        }
      ],
      "name": "Approval",
      "type": "event"
    },
    {
      "anonymous": false,
      "inputs": [
        {
          "indexed": true,
          "internalType": "address",
          "name": "owner",
          "type": "address"
        },
        {
          "indexed": true,
          "internalType": "address",
          "name": "operator",
          "type": "address"
        },
        {
          "indexed": false,
          "internalType": "bool",
          "name": "approved",
          "type": "bool"
        }
      ],
      "name": "ApprovalForAll",
      "type": "event"
    },
    {
      "anonymous": false,
      "inputs": [
        {
          "indexed": true,
          "internalType": "address",
          "name": "from",
          "type": "address"
        },
        {
          "indexed": true,
          "internalType": "address",
          "name": "to",
          "type": "address"
        },
        {
          "indexed": true,
          "internalType": "uint256",
          "name": "tokenId",
          "type": "uint256"
        }
      ],
      "name": "Transfer",
      "type": "event"
    },
    {
      "inputs": [
        {
          "internalType": "address",
          "name": "to",
          "type": "address"
        },
        {
          "internalType": "uint256",
          "name": "tokenId",
          "type": "uint256"
        }
      ],
      "name": "approve",
      "outputs": [],
      "stateMutability": "nonpayable",
      "type": "function"
    },
    {
      "inputs": [
        {
          "internalType": "address",
          "name": "owner",
          "type": "address"
        }
      ],
      "name": "balanceOf",
      "outputs": [
        {
          "internalType": "uint256",
          "name": "",
          "type": "uint256"
        }
      ],
      "stateMutability": "view",
      "type": "function",
      "constant": true
    },
    {
      "inputs": [
        {
          "internalType": "uint256",
          "name": "",
          "type": "uint256"
        }
      ],
      "name": "certificates",
      "outputs": [
        {
          "internalType": "string",
          "name": "courseName",
          "type": "string"
        },
        {
          "internalType": "address",
          "name": "student",
          "type": "address"
        },
        {
          "internalType": "uint256",
          "name": "completionDate",
          "type": "uint256"
        },
        {
          "internalType": "string",
          "name": "ipfsHash",
          "type": "string"
        }
      ],
      "stateMutability": "view",
      "type": "function",
      "constant": true
    },
    {
      "inputs": [
        {
          "internalType": "uint256",
          "name": "tokenId",
          "type": "uint256"
        }
      ],
      "name": "getApproved",
      "outputs": [
        {
          "internalType": "address",
          "name": "",
          "type": "address"
        }
      ],
      "stateMutability": "view",
      "type": "function",
      "constant": true
    },
    {
      "inputs": [
        {
          "internalType": "address",
          "name": "owner",
          "type": "address"
        },
        {
          "internalType": "address",
          "name": "operator",
          "type": "address"
        }
      ],
      "name": "isApprovedForAll",
      "outputs": [
        {
          "internalType": "bool",
          "name": "",
          "type": "bool"
        }
      ],
      "stateMutability": "view",
      "type": "function",
      "constant": true
    },
    {
      "inputs": [],
      "name": "name",
      "outputs": [
        {
          "internalType": "string",
          "name": "",
          "type": "string"
        }
      ],
      "stateMutability": "view",
      "type": "function",
      "constant": true
    },
    {
      "inputs": [
        {
          "internalType": "uint256",
          "name": "tokenId",
          "type": "uint256"
        }
      ],
      "name": "ownerOf",
      "outputs": [
        {
          "internalType": "address",
          "name": "",
          "type": "address"
        }
      ],
      "stateMutability": "view",
      "type": "function",
      "constant": true
    },
    {
      "inputs": [
        {
          "internalType": "address",
          "name": "from",
          "type": "address"
        },
        {
          "internalType": "address",
          "name": "to",
          "type": "address"
        },
        {
          "internalType": "uint256",
          "name": "tokenId",
          "type": "uint256"
        }
      ],
      "name": "safeTransferFrom",
      "outputs": [],
      "stateMutability": "nonpayable",
      "type": "function"
    },
    {
      "inputs": [
        {
          "internalType": "address",
          "name": "from",
          "type": "address"
        },
        {
          "internalType": "address",
          "name": "to",
          "type": "address"
        },
        {
          "internalType": "uint256",
          "name": "tokenId",
          "type": "uint256"
        },
        {
          "internalType": "bytes",
          "name": "data",
          "type": "bytes"
        }
      ],
      "name": "safeTransferFrom",
      "outputs": [],
      "stateMutability": "nonpayable",
      "type": "function"
    },
    {
      "inputs": [
        {
          "internalType": "address",
          "name": "operator",
          "type": "address"
        },
        {
          "internalType": "bool",
          "name": "approved",
          "type": "bool"
        }
      ],
      "name": "setApprovalForAll",
      "outputs": [],
      "stateMutability": "nonpayable",
      "type": "function"
    },
    {
      "inputs": [
        {
          "internalType": "bytes4",
          "name": "interfaceId",
          "type": "bytes4"
        }
      ],
      "name": "supportsInterface",
      "outputs": [
        {
          "internalType": "bool",
          "name": "",
          "type": "bool"
        }
      ],
      "stateMutability": "view",
      "type": "function",
      "constant": true
    },
    {
      "inputs": [],
      "name": "symbol",
      "outputs": [
        {
          "internalType": "string",
          "name": "",
          "type": "string"
        }
      ],
      "stateMutability": "view",
      "type": "function",
      "constant": true
    },
    {
      "inputs": [
        {
          "internalType": "uint256",
          "name": "tokenId",
          "type": "uint256"
        }
      ],
      "name": "tokenURI",
      "outputs": [
        {
          "internalType": "string",
          "name": "",
          "type": "string"
        }
      ],
      "stateMutability": "view",
      "type": "function",
      "constant": true
    },
    {
      "inputs": [
        {
          "internalType": "address",
          "name": "from",
          "type": "address"
        },
        {
          "internalType": "address",
          "name": "to",
          "type": "address"
        },
        {
          "internalType": "uint256",
          "name": "tokenId",
          "type": "uint256"
        }
      ],
      "name": "transferFrom",
      "outputs": [],
      "stateMutability": "nonpayable",
      "type": "function"
    },
    {
      "inputs": [
        {
          "internalType": "address",
          "name": "student",
          "type": "address"
        },
        {
          "internalType": "string",
          "name": "courseName",
          "type": "string"
        },
        {
          "internalType": "string",
          "name": "ipfsHash",
          "type": "string"
        }
      ],
      "name": "issueCertificate",
      "outputs": [
        {
          "internalType": "uint256",
          "name": "",
          "type": "uint256"
        }
      ],
      "stateMutability": "nonpayable",
      "type": "function"
    }
  ],
  "bytecode": "0x60806040523480156200001157600080fd5b5060405180604001604052806012815260200171436f7572736520436572746966696361746560701b8152506040518060400160405280600481526020016310d1549560e21b81525081600090816200006b919062000128565b5060016200007a828262000128565b505050620001f4565b634e487b7160e01b600052604160045260246000fd5b600181811c90821680620000ae57607f821691505b602082108103620000cf57634e487b7160e01b600052602260045260246000fd5b50919050565b601f8211156200012357600081815260208120601f850160051c81016020861015620000fe5750805b601f850160051c820191505b818110156200011f578281556001016200010a565b5050505b505050565b81516001600160401b0381111562000144576200014462000083565b6200015c8162000155845462000099565b84620000d5565b602080601f8311600181146200019457600084156200017b5750858301515b600019600386901b1c1916600185901b1785556200011f565b600085815260208120601f198616915b82811015620001c557888601518255948401946001909101908401620001a4565b5085821015620001e45787850151600019600388901b60f8161c191681555b5050505050600190811b01905550565b6116de80620002046000396000f3fe608060405234801561001057600080fd5b50600436106100f55760003560e01c8063663b3e2211610097578063b88d4fde11610066578063b88d4fde1461020f578063c87b56dd14610222578063e985e9c514610235578063e98ac4d81461027157600080fd5b8063663b3e22146101b057806370a08231146101d357806395d89b41146101f4578063a22cb465146101fc57600080fd5b8063095ea7b3116100d3578063095ea7b31461016257806323b872dd1461017757806342842e0e1461018a5780636352211e1461019d57600080fd5b806301ffc9a7146100fa57806306fdde0314610122578063081812fc14610137575b600080fd5b61010d61010836600461106c565b610284565b60405190151581526020015b60405180910390f35b61012a6102d6565b60405161011991906110d9565b61014a6101453660046110ec565b610368565b6040516001600160a01b039091168152602001610119565b610175610170366004611121565b61038f565b005b61017561018536600461114b565b6104a9565b61017561019836600461114b565b6104da565b61014a6101ab3660046110ec565b6104f5565b6101c36101be3660046110ec565b610555565b6040516101199493929190611187565b6101e66101e13660046111cd565b61069b565b604051908152602001610119565b61012a610721565b61017561020a3660046111e8565b610730565b61017561021d3660046112b0565b61073f565b61012a6102303660046110ec565b610777565b61010d61024336600461132c565b6001600160a01b03918216600090815260056020908152604080832093909416825291909152205460ff1690565b6101e661027f36600461137f565b6107eb565b60006001600160e01b031982166380ac58cd60e01b14806102b557506001600160e01b03198216635b5e139f60e01b145b806102d057506301ffc9a760e01b6001600160e01b03198316145b92915050565b6060600080546102e5906113f3565b80601f0160208091040260200160405190810160405280929190818152602001828054610311906113f3565b801561035e5780601f106103335761010080835404028352916020019161035e565b820191906000526020600020905b81548152906001019060200180831161034157829003601f168201915b5050505050905090565b6000610373826108ab565b506000908152600460205260409020546001600160a01b031690565b600061039a826104f5565b9050806001600160a01b0316836001600160a01b03160361040c5760405162461bcd60e51b815260206004820152602160248201527f4552433732313a20617070726f76616c20746f2063757272656e74206f776e656044820152603960f91b60648201526084015b60405180910390fd5b336001600160a01b038216148061042857506104288133610243565b61049a5760405162461bcd60e51b815260206004820152603d60248201527f4552433732313a20617070726f76652063616c6c6572206973206e6f7420746f60448201527f6b656e206f776e6572206f7220617070726f76656420666f7220616c6c0000006064820152608401610403565b6104a4838361090d565b505050565b6104b3338261097b565b6104cf5760405162461bcd60e51b81526004016104039061142d565b6104a48383836109fa565b6104a48383836040518060200160405280600081525061073f565b6000818152600260205260408120546001600160a01b0316806102d05760405162461bcd60e51b8152602060048201526018602482015277115490cdcc8c4e881a5b9d985b1a59081d1bdad95b88125160421b6044820152606401610403565b600760205260009081526040902080548190610570906113f3565b80601f016020809104026020016040519081016040528092919081815260200182805461059c906113f3565b80156105e95780601f106105be576101008083540402835291602001916105e9565b820191906000526020600020905b8154815290600101906020018083116105cc57829003601f168201915b505050506001830154600284015460038501805494956001600160a01b039093169491935090610618906113f3565b80601f0160208091040260200160405190810160405280929190818152602001828054610644906113f3565b80156106915780601f1061066657610100808354040283529160200191610691565b820191906000526020600020905b81548152906001019060200180831161067457829003601f168201915b5050505050905084565b60006001600160a01b0382166107055760405162461bcd60e51b815260206004820152602960248201527f4552433732313a2061646472657373207a65726f206973206e6f7420612076616044820152683634b21037bbb732b960b91b6064820152608401610403565b506001600160a01b031660009081526003602052604090205490565b6060600180546102e5906113f3565b61073b338383610b5e565b5050565b610749338361097b565b6107655760405162461bcd60e51b81526004016104039061142d565b61077184848484610c2c565b50505050565b6060610782826108ab565b600061079960408051602081019091526000815290565b905060008151116107b957604051806020016040528060008152506107e4565b806107c384610c5f565b6040516020016107d492919061147a565b6040516020818303038152906040525b9392505050565b60006107fb600680546001019055565b600061080660065490565b90506108128582610cf2565b604080516080810182528581526001600160a01b03871660208083019190915242828401526060820186905260008481526007909152919091208151819061085a90826114f7565b5060208201516001820180546001600160a01b0319166001600160a01b03909216919091179055604082015160028201556060820151600382019061089f90826114f7565b50919695505050505050565b6000818152600260205260409020546001600160a01b031661090a5760405162461bcd60e51b8152602060048201526018602482015277115490cdcc8c4e881a5b9d985b1a59081d1bdad95b88125160421b6044820152606401610403565b50565b600081815260046020526040902080546001600160a01b0319166001600160a01b0384169081179091558190610942826104f5565b6001600160a01b03167f8c5be1e5ebec7d5bd14f71427d1e84f3dd0314c0f7b2291e5b200ac8c7c3b92560405160405180910390a45050565b600080610987836104f5565b9050806001600160a01b0316846001600160a01b031614806109ce57506001600160a01b0380821660009081526005602090815260408083209388168352929052205460ff165b806109f25750836001600160a01b03166109e784610368565b6001600160a01b0316145b949350505050565b826001600160a01b0316610a0d826104f5565b6001600160a01b031614610a335760405162461bcd60e51b8152600401610403906115b7565b6001600160a01b038216610a955760405162461bcd60e51b8152602060048201526024808201527f4552433732313a207472616e7366657220746f20746865207a65726f206164646044820152637265737360e01b6064820152608401610403565b826001600160a01b0316610aa8826104f5565b6001600160a01b031614610ace5760405162461bcd60e51b8152600401610403906115b7565b600081815260046020908152604080832080546001600160a01b03199081169091556001600160a01b0387811680865260038552838620805460001901905590871680865283862080546001019055868652600290945282852080549092168417909155905184937fddf252ad1be2c89b69c2b068fc378daa952ba7f163c4a11628f55a4df523b3ef91a4505050565b816001600160a01b0316836001600160a01b031603610bbf5760405162461bcd60e51b815260206004820152601960248201527f4552433732313a20617070726f766520746f2063616c6c6572000000000000006044820152606401610403565b6001600160a01b03838116600081815260056020908152604080832094871680845294825291829020805460ff191686151590811790915591519182527f17307eab39ab6107e8899845ad3d59bd9653f200f220920489ca2b5937696c31910160405180910390a3505050565b610c378484846109fa565b610c4384848484610e7d565b6107715760405162461bcd60e51b8152600401610403906115fc565b60606000610c6c83610f7e565b600101905060008167ffffffffffffffff811115610c8c57610c8c611224565b6040519080825280601f01601f191660200182016040528015610cb6576020820181803683370190505b5090508181016020015b600019016f181899199a1a9b1b9c1cb0b131b232b360811b600a86061a8153600a8504945084610cc057509392505050565b6001600160a01b038216610d485760405162461bcd60e51b815260206004820181905260248201527f4552433732313a206d696e7420746f20746865207a65726f20616464726573736044820152606401610403565b6000818152600260205260409020546001600160a01b031615610dad5760405162461bcd60e51b815260206004820152601c60248201527f4552433732313a20746f6b656e20616c7265616479206d696e746564000000006044820152606401610403565b6000818152600260205260409020546001600160a01b031615610e125760405162461bcd60e51b815260206004820152601c60248201527f4552433732313a20746f6b656e20616c7265616479206d696e746564000000006044820152606401610403565b6001600160a01b038216600081815260036020908152604080832080546001019055848352600290915280822080546001600160a01b0319168417905551839291907fddf252ad1be2c89b69c2b068fc378daa952ba7f163c4a11628f55a4df523b3ef908290a45050565b60006001600160a01b0384163b15610f7357604051630a85bd0160e11b81526001600160a01b0385169063150b7a0290610ec190339089908890889060040161164e565b6020604051808303816000875af1925050508015610efc575060408051601f3d908101601f19168201909252610ef99181019061168b565b60015b610f59573d808015610f2a576040519150601f19603f3d011682016040523d82523d6000602084013e610f2f565b606091505b508051600003610f515760405162461bcd60e51b8152600401610403906115fc565b805181602001fd5b6001600160e01b031916630a85bd0160e11b1490506109f2565b506001949350505050565b60008072184f03e93ff9f4daa797ed6e38ed64bf6a1f0160401b8310610fbd5772184f03e93ff9f4daa797ed6e38ed64bf6a1f0160401b830492506040015b6d04ee2d6d415b85acef81000000008310610fe9576d04ee2d6d415b85acef8100000000830492506020015b662386f26fc10000831061100757662386f26fc10000830492506010015b6305f5e100831061101f576305f5e100830492506008015b612710831061103357612710830492506004015b60648310611045576064830492506002015b600a83106102d05760010192915050565b6001600160e01b03198116811461090a57600080fd5b60006020828403121561107e57600080fd5b81356107e481611056565b60005b838110156110a457818101518382015260200161108c565b50506000910152565b600081518084526110c5816020860160208601611089565b601f01601f19169290920160200192915050565b6020815260006107e460208301846110ad565b6000602082840312156110fe57600080fd5b5035919050565b80356001600160a01b038116811461111c57600080fd5b919050565b6000806040838503121561113457600080fd5b61113d83611105565b946020939093013593505050565b60008060006060848603121561116057600080fd5b61116984611105565b925061117760208501611105565b9150604084013590509250925092565b60808152600061119a60808301876110ad565b6001600160a01b03861660208401526040830185905282810360608401526111c281856110ad565b979650505050505050565b6000602082840312156111df57600080fd5b6107e482611105565b600080604083850312156111fb57600080fd5b61120483611105565b91506020830135801515811461121957600080fd5b809150509250929050565b634e487b7160e01b600052604160045260246000fd5b600067ffffffffffffffff8084111561125557611255611224565b604051601f8501601f19908116603f0116810190828211818310171561127d5761127d611224565b8160405280935085815286868601111561129657600080fd5b858560208301376000602087830101525050509392505050565b600080600080608085870312156112c657600080fd5b6112cf85611105565b93506112dd60208601611105565b925060408501359150606085013567ffffffffffffffff81111561130057600080fd5b8501601f8101871361131157600080fd5b6113208782356020840161123a565b91505092959194509250565b6000806040838503121561133f57600080fd5b61134883611105565b915061135660208401611105565b90509250929050565b600082601f83011261137057600080fd5b6107e48383356020850161123a565b60008060006060848603121561139457600080fd5b61139d84611105565b9250602084013567ffffffffffffffff808211156113ba57600080fd5b6113c68783880161135f565b935060408601359150808211156113dc57600080fd5b506113e98682870161135f565b9150509250925092565b600181811c9082168061140757607f821691505b60208210810361142757634e487b7160e01b600052602260045260246000fd5b50919050565b6020808252602d908201527f4552433732313a2063616c6c6572206973206e6f7420746f6b656e206f776e6560408201526c1c881bdc88185c1c1c9bdd9959609a1b606082015260800190565b6000835161148c818460208801611089565b8351908301906114a0818360208801611089565b01949350505050565b601f8211156104a457600081815260208120601f850160051c810160208610156114d05750805b601f850160051c820191505b818110156114ef578281556001016114dc565b505050505050565b815167ffffffffffffffff81111561151157611511611224565b6115258161151f84546113f3565b846114a9565b602080601f83116001811461155a57600084156115425750858301515b600019600386901b1c1916600185901b1785556114ef565b600085815260208120601f198616915b828110156115895788860151825594840194600190910190840161156a565b50858210156115a75787850151600019600388901b60f8161c191681555b5050505050600190811b01905550565b60208082526025908201527f4552433732313a207472616e736665722066726f6d20696e636f72726563742060408201526437bbb732b960d91b606082015260800190565b60208082526032908201527f4552433732313a207472616e7366657220746f206e6f6e20455243373231526560408201527131b2b4bb32b91034b6b83632b6b2b73a32b960711b606082015260800190565b6001600160a01b0385811682528416602082015260408101839052608060608201819052600090611681908301846110ad565b9695505050505050565b60006020828403121561169d57600080fd5b81516107e48161105656fea264697066735822122001d1dfd02d3119a346c571ed30304c638d3cafd0e651a80444cc06a4151e4b7164736f6c63430008130033",
  "immutableReferences": {},
  "source": "// SPDX-License-Identifier: MIT\r\npragma solidity ^0.8.19;\r\n\r\nimport \"@openzeppelin/contracts/token/ERC721/ERC721.sol\";\r\nimport \"@openzeppelin/contracts/utils/Counters.sol\";\r\n\r\ncontract CourseNFT is ERC721 {\r\n    using Counters for Counters.Counter;\r\n    Counters.Counter private _tokenIds;\r\n    \r\n    struct Certificate {\r\n        string courseName;\r\n        address student;\r\n        uint256 completionDate;\r\n        string ipfsHash; // For storing certificate metadata\r\n    }\r\n    \r\n    mapping(uint256 => Certificate) public certificates;\r\n    \r\n    constructor() ERC721(\"Course Certificate\", \"CERT\") {}\r\n    \r\n    function issueCertificate(\r\n        address student,\r\n        string memory courseName,\r\n        string memory ipfsHash\r\n    ) external returns (uint256) {\r\n        _tokenIds.increment();\r\n        uint256 newCertificateId = _tokenIds.current();\r\n        \r\n        _mint(student, newCertificateId);\r\n        \r\n        certificates[newCertificateId] = Certificate({\r\n            courseName: courseName,\r\n            student: student,\r\n            completionDate: block.timestamp,\r\n            ipfsHash: ipfsHash\r\n        });\r\n        \r\n        return newCertificateId;\r\n    }\r\n}",
  "sourcePath": "C:\\Users\\GHOST\\OneDrive\\Desktop\\edu_tokkenv2\\contracts\\CourseNFT.sol",
  "compiler": {
    "name": "solc",
    "version": "0.8.19+commit.7dd6d404.Emscripten.clang"
  },
  "schemaVersion": "3.4.16",
  "updatedAt": "2024-11-02T11:31:17.909Z",
  "networkType": "ethereum",
  "devdoc": {
    "events": {
      "Approval(address,address,uint256)": {
        "details": "Emitted when `owner` enables `approved` to manage the `tokenId` token."
      },
      "ApprovalForAll(address,address,bool)": {
        "details": "Emitted when `owner` enables or disables (`approved`) `operator` to manage all of its assets."
      },
      "Transfer(address,address,uint256)": {
        "details": "Emitted when `tokenId` token is transferred from `from` to `to`."
      }
    },
    "kind": "dev",
    "methods": {
      "approve(address,uint256)": {
        "details": "See {IERC721-approve}."
      },
      "balanceOf(address)": {
        "details": "See {IERC721-balanceOf}."
      },
      "getApproved(uint256)": {
        "details": "See {IERC721-getApproved}."
      },
      "isApprovedForAll(address,address)": {
        "details": "See {IERC721-isApprovedForAll}."
      },
      "name()": {
        "details": "See {IERC721Metadata-name}."
      },
      "ownerOf(uint256)": {
        "details": "See {IERC721-ownerOf}."
      },
      "safeTransferFrom(address,address,uint256)": {
        "details": "See {IERC721-safeTransferFrom}."
      },
      "safeTransferFrom(address,address,uint256,bytes)": {
        "details": "See {IERC721-safeTransferFrom}."
      },
      "setApprovalForAll(address,bool)": {
        "details": "See {IERC721-setApprovalForAll}."
      },
      "supportsInterface(bytes4)": {
        "details": "See {IERC165-supportsInterface}."
      },
      "symbol()": {
        "details": "See {IERC721Metadata-symbol}."
      },
      "tokenURI(uint256)": {
        "details": "See {IERC721Metadata-tokenURI}."
      },
      "transferFrom(address,address,uint256)": {
        "details": "See {IERC721-transferFrom}."
      }
    },
    "version": 1
  },
  "userdoc": {
    "kind": "user",
    "methods": {},
    "version": 1
  }
}