{
  "contractName": "EduToken",
  "abi": [
    {
      "inputs": [
        {
          "internalType": "uint256",
          "name": "_initialSupply",
          "type": "uint256"
        }
      ],
      "stateMutability": "nonpayable",
      "type": "constructor"
    },
    {
      "anonymous": false,
      "inputs": [
        {
          "indexed": true,
          "internalType": "address",
          "name": "from",
          "type": "address"
        },
        {
          "indexed": true,
          "internalType": "address",
          "name": "to",
          "type": "address"
        },
        {
          "indexed": false,
          "internalType": "uint256",
          "name": "value",
          "type": "uint256"
        }
      ],
      "name": "Transfer",
      "type": "event"
    },
    {
      "inputs": [
        {
          "internalType": "address",
          "name": "",
          "type": "address"
        }
      ],
      "name": "balanceOf",
      "outputs": [
        {
          "internalType": "uint256",
          "name": "",
          "type": "uint256"
        }
      ],
      "stateMutability": "view",
      "type": "function"
    },
    {
      "inputs": [],
      "name": "decimals",
      "outputs": [
        {
          "internalType": "uint8",
          "name": "",
          "type": "uint8"
        }
      ],
      "stateMutability": "view",
      "type": "function"
    },
    {
      "inputs": [],
      "name": "name",
      "outputs": [
        {
          "internalType": "string",
          "name": "",
          "type": "string"
        }
      ],
      "stateMutability": "view",
      "type": "function"
    },
    {
      "inputs": [],
      "name": "symbol",
      "outputs": [
        {
          "internalType": "string",
          "name": "",
          "type": "string"
        }
      ],
      "stateMutability": "view",
      "type": "function"
    },
    {
      "inputs": [],
      "name": "totalSupply",
      "outputs": [
        {
          "internalType": "uint256",
          "name": "",
          "type": "uint256"
        }
      ],
      "stateMutability": "view",
      "type": "function"
    },
    {
      "inputs": [
        {
          "internalType": "address",
          "name": "_to",
          "type": "address"
        },
        {
          "internalType": "uint256",
          "name": "_value",
          "type": "uint256"
        }
      ],
      "name": "transfer",
      "outputs": [
        {
          "internalType": "bool",
          "name": "success",
          "type": "bool"
        }
      ],
      "stateMutability": "nonpayable",
      "type": "function"
    }
  ],
  "bytecode": "0x60806040526040518060400160405280600881526020017f456475546f6b656e0000000000000000000000000000000000000000000000008152505f9081620000499190620003c0565b506040518060400160405280600381526020017f454455000000000000000000000000000000000000000000000000000000000081525060019081620000909190620003c0565b50601260025f6101000a81548160ff021916908360ff160217905550348015620000b8575f80fd5b5060405162000f0338038062000f038339818101604052810190620000de9190620004d7565b60025f9054906101000a900460ff1660ff16600a620000fe919062000684565b816200010b9190620006d4565b60038190555060035460045f3373ffffffffffffffffffffffffffffffffffffffff1673ffffffffffffffffffffffffffffffffffffffff1681526020019081526020015f2081905550506200071e565b5f81519050919050565b7f4e487b71000000000000000000000000000000000000000000000000000000005f52604160045260245ffd5b7f4e487b71000000000000000000000000000000000000000000000000000000005f52602260045260245ffd5b5f6002820490506001821680620001d857607f821691505b602082108103620001ee57620001ed62000193565b5b50919050565b5f819050815f5260205f209050919050565b5f6020601f8301049050919050565b5f82821b905092915050565b5f60088302620002527fffffffffffffffffffffffffffffffffffffffffffffffffffffffffffffffff8262000215565b6200025e868362000215565b95508019841693508086168417925050509392505050565b5f819050919050565b5f819050919050565b5f620002a8620002a26200029c8462000276565b6200027f565b62000276565b9050919050565b5f819050919050565b620002c38362000288565b620002db620002d282620002af565b84845462000221565b825550505050565b5f90565b620002f1620002e3565b620002fe818484620002b8565b505050565b5b818110156200032557620003195f82620002e7565b60018101905062000304565b5050565b601f82111562000374576200033e81620001f4565b620003498462000206565b8101602085101562000359578190505b62000371620003688562000206565b83018262000303565b50505b505050565b5f82821c905092915050565b5f620003965f198460080262000379565b1980831691505092915050565b5f620003b0838362000385565b9150826002028217905092915050565b620003cb826200015c565b67ffffffffffffffff811115620003e757620003e662000166565b5b620003f38254620001c0565b6200040082828562000329565b5f60209050601f83116001811462000436575f841562000421578287015190505b6200042d8582620003a3565b8655506200049c565b601f1984166200044686620001f4565b5f5b828110156200046f5784890151825560018201915060208501945060208101905062000448565b868310156200048f57848901516200048b601f89168262000385565b8355505b6001600288020188555050505b505050505050565b5f80fd5b620004b38162000276565b8114620004be575f80fd5b50565b5f81519050620004d181620004a8565b92915050565b5f60208284031215620004ef57620004ee620004a4565b5b5f620004fe84828501620004c1565b91505092915050565b7f4e487b71000000000000000000000000000000000000000000000000000000005f52601160045260245ffd5b5f8160011c9050919050565b5f808291508390505b6001851115620005915780860481111562000569576200056862000507565b5b6001851615620005795780820291505b8081029050620005898562000534565b945062000549565b94509492505050565b5f82620005ab57600190506200067d565b81620005ba575f90506200067d565b8160018114620005d35760028114620005de5762000614565b60019150506200067d565b60ff841115620005f357620005f262000507565b5b8360020a9150848211156200060d576200060c62000507565b5b506200067d565b5060208310610133831016604e8410600b84101617156200064e5782820a90508381111562000648576200064762000507565b5b6200067d565b6200065d848484600162000540565b9250905081840481111562000677576200067662000507565b5b81810290505b9392505050565b5f620006908262000276565b91506200069d8362000276565b9250620006cc7fffffffffffffffffffffffffffffffffffffffffffffffffffffffffffffffff84846200059a565b905092915050565b5f620006e08262000276565b9150620006ed8362000276565b9250828202620006fd8162000276565b9150828204841483151762000717576200071662000507565b5b5092915050565b6107d7806200072c5f395ff3fe608060405234801561000f575f80fd5b5060043610610060575f3560e01c806306fdde031461006457806318160ddd14610082578063313ce567146100a057806370a08231146100be57806395d89b41146100ee578063a9059cbb1461010c575b5f80fd5b61006c61013c565b60405161007991906104a0565b60405180910390f35b61008a6101c7565b60405161009791906104d8565b60405180910390f35b6100a86101cd565b6040516100b5919061050c565b60405180910390f35b6100d860048036038101906100d39190610583565b6101df565b6040516100e591906104d8565b60405180910390f35b6100f66101f4565b60405161010391906104a0565b60405180910390f35b610126600480360381019061012191906105d8565b610280565b6040516101339190610630565b60405180910390f35b5f805461014890610676565b80601f016020809104026020016040519081016040528092919081815260200182805461017490610676565b80156101bf5780601f10610196576101008083540402835291602001916101bf565b820191905f5260205f20905b8154815290600101906020018083116101a257829003601f168201915b505050505081565b60035481565b60025f9054906101000a900460ff1681565b6004602052805f5260405f205f915090505481565b6001805461020190610676565b80601f016020809104026020016040519081016040528092919081815260200182805461022d90610676565b80156102785780601f1061024f57610100808354040283529160200191610278565b820191905f5260205f20905b81548152906001019060200180831161025b57829003601f168201915b505050505081565b5f8160045f3373ffffffffffffffffffffffffffffffffffffffff1673ffffffffffffffffffffffffffffffffffffffff1681526020019081526020015f20541015610301576040517f08c379a00000000000000000000000000000000000000000000000000000000081526004016102f8906106f0565b60405180910390fd5b8160045f3373ffffffffffffffffffffffffffffffffffffffff1673ffffffffffffffffffffffffffffffffffffffff1681526020019081526020015f205f82825461034d919061073b565b925050819055508160045f8573ffffffffffffffffffffffffffffffffffffffff1673ffffffffffffffffffffffffffffffffffffffff1681526020019081526020015f205f8282546103a0919061076e565b925050819055508273ffffffffffffffffffffffffffffffffffffffff163373ffffffffffffffffffffffffffffffffffffffff167fddf252ad1be2c89b69c2b068fc378daa952ba7f163c4a11628f55a4df523b3ef8460405161040491906104d8565b60405180910390a36001905092915050565b5f81519050919050565b5f82825260208201905092915050565b5f5b8381101561044d578082015181840152602081019050610432565b5f8484015250505050565b5f601f19601f8301169050919050565b5f61047282610416565b61047c8185610420565b935061048c818560208601610430565b61049581610458565b840191505092915050565b5f6020820190508181035f8301526104b88184610468565b905092915050565b5f819050919050565b6104d2816104c0565b82525050565b5f6020820190506104eb5f8301846104c9565b92915050565b5f60ff82169050919050565b610506816104f1565b82525050565b5f60208201905061051f5f8301846104fd565b92915050565b5f80fd5b5f73ffffffffffffffffffffffffffffffffffffffff82169050919050565b5f61055282610529565b9050919050565b61056281610548565b811461056c575f80fd5b50565b5f8135905061057d81610559565b92915050565b5f6020828403121561059857610597610525565b5b5f6105a58482850161056f565b91505092915050565b6105b7816104c0565b81146105c1575f80fd5b50565b5f813590506105d2816105ae565b92915050565b5f80604083850312156105ee576105ed610525565b5b5f6105fb8582860161056f565b925050602061060c858286016105c4565b9150509250929050565b5f8115159050919050565b61062a81610616565b82525050565b5f6020820190506106435f830184610621565b92915050565b7f4e487b71000000000000000000000000000000000000000000000000000000005f52602260045260245ffd5b5f600282049050600182168061068d57607f821691505b6020821081036106a05761069f610649565b5b50919050565b7f496e73756666696369656e742062616c616e63650000000000000000000000005f82015250565b5f6106da601483610420565b91506106e5826106a6565b602082019050919050565b5f6020820190508181035f830152610707816106ce565b9050919050565b7f4e487b71000000000000000000000000000000000000000000000000000000005f52601160045260245ffd5b5f610745826104c0565b9150610750836104c0565b92508282039050818111156107685761076761070e565b5b92915050565b5f610778826104c0565b9150610783836104c0565b925082820190508082111561079b5761079a61070e565b5b9291505056fea2646970667358221220524e74e6594300f24564b505b734e314393d9d6e80a8f1fdb7bfedc6e5e9abc364736f6c63430008150033",
  "immutableReferences": {},
  "source": "// SPDX-License-Identifier: MIT\r\npragma solidity ^0.8.0;\r\n\r\ncontract EduToken {\r\n    string public name = \"EduToken\";\r\n    string public symbol = \"EDU\";\r\n    uint8 public decimals = 18;\r\n    uint256 public totalSupply;\r\n    \r\n    mapping(address => uint256) public balanceOf;\r\n    \r\n    event Transfer(address indexed from, address indexed to, uint256 value);\r\n    \r\n    constructor(uint256 _initialSupply) {\r\n        totalSupply = _initialSupply * 10 ** uint256(decimals);\r\n        balanceOf[msg.sender] = totalSupply;\r\n    }\r\n\r\n    function transfer(address _to, uint256 _value) public returns (bool success) {\r\n        require(balanceOf[msg.sender] >= _value, \"Insufficient balance\");\r\n        balanceOf[msg.sender] -= _value;\r\n        balanceOf[_to] += _value;\r\n        emit Transfer(msg.sender, _to, _value);\r\n        return true;\r\n    }\r\n}",
  "sourcePath": "C:\\Users\\GHOST\\OneDrive\\Desktop\\token__edu\\contracts\\EduToken.sol",
  "compiler": {
    "name": "solc",
    "version": "0.8.21+commit.d9974bed.Emscripten.clang"
  },
  "schemaVersion": "3.4.16",
  "updatedAt": "2024-10-20T16:11:02.718Z",
  "devdoc": {
    "kind": "dev",
    "methods": {},
    "version": 1
  },
  "userdoc": {
    "kind": "user",
    "methods": {},
    "version": 1
  }
}