{
  "contractName": "LearningPathManager",
  "abi": [
    {
      "anonymous": false,
      "inputs": [
        {
          "indexed": false,
          "internalType": "uint256",
          "name": "pathId",
          "type": "uint256"
        },
        {
          "indexed": false,
          "internalType": "address",
          "name": "student",
          "type": "address"
        }
      ],
      "name": "PathCompleted",
      "type": "event"
    },
    {
      "anonymous": false,
      "inputs": [
        {
          "indexed": false,
          "internalType": "uint256",
          "name": "pathId",
          "type": "uint256"
        },
        {
          "indexed": false,
          "internalType": "string",
          "name": "name",
          "type": "string"
        }
      ],
      "name": "PathCreated",
      "type": "event"
    },
    {
      "inputs": [
        {
          "internalType": "uint256",
          "name": "",
          "type": "uint256"
        }
      ],
      "name": "learningPaths",
      "outputs": [
        {
          "internalType": "string",
          "name": "name",
          "type": "string"
        },
        {
          "internalType": "uint256",
          "name": "tokenReward",
          "type": "uint256"
        },
        {
          "internalType": "bool",
          "name": "isActive",
          "type": "bool"
        }
      ],
      "stateMutability": "view",
      "type": "function",
      "constant": true
    },
    {
      "inputs": [],
      "name": "pathCount",
      "outputs": [
        {
          "internalType": "uint256",
          "name": "",
          "type": "uint256"
        }
      ],
      "stateMutability": "view",
      "type": "function",
      "constant": true
    },
    {
      "inputs": [
        {
          "internalType": "string",
          "name": "name",
          "type": "string"
        },
        {
          "internalType": "uint256[]",
          "name": "courseIds",
          "type": "uint256[]"
        },
        {
          "internalType": "uint256",
          "name": "tokenReward",
          "type": "uint256"
        }
      ],
      "name": "createLearningPath",
      "outputs": [
        {
          "internalType": "uint256",
          "name": "",
          "type": "uint256"
        }
      ],
      "stateMutability": "nonpayable",
      "type": "function"
    }
  ],
  "bytecode": "0x608060405234801561001057600080fd5b5061065b806100206000396000f3fe608060405234801561001057600080fd5b50600436106100415760003560e01c80633a7df95f146100465780638c821e9014610071578063988b2d8414610088575b600080fd5b610059610054366004610283565b61009b565b604051610068939291906102e2565b60405180910390f35b61007a60015481565b604051908152602001610068565b61007a6100963660046103d3565b610149565b6000602081905290815260409020805481906100b690610494565b80601f01602080910402602001604051908101604052809291908181526020018280546100e290610494565b801561012f5780601f106101045761010080835404028352916020019161012f565b820191906000526020600020905b81548152906001019060200180831161011257829003601f168201915b50505050600283015460039093015491929160ff16905083565b600180546000918261015a836104ce565b909155505060408051608081018252858152602080820186905281830185905260016060830181905254600090815290819052919091208151819061019f9082610544565b5060208281015180516101b89260018501920190610223565b5060408281015160028301556060909201516003909101805460ff191691151591909117905560015490517f485418d38ce7a73e425bf803e3ccaaf4a7424814806b6c197c507540d532201b91610210918790610604565b60405180910390a1506001549392505050565b82805482825590600052602060002090810192821561025e579160200282015b8281111561025e578251825591602001919060010190610243565b5061026a92915061026e565b5090565b5b8082111561026a576000815560010161026f565b60006020828403121561029557600080fd5b5035919050565b6000815180845260005b818110156102c2576020818501810151868301820152016102a6565b506000602082860101526020601f19601f83011685010191505092915050565b6060815260006102f5606083018661029c565b602083019490945250901515604090910152919050565b634e487b7160e01b600052604160045260246000fd5b604051601f8201601f1916810167ffffffffffffffff8111828210171561034b5761034b61030c565b604052919050565b600082601f83011261036457600080fd5b8135602067ffffffffffffffff8211156103805761038061030c565b8160051b61038f828201610322565b92835284810182019282810190878511156103a957600080fd5b83870192505b848310156103c8578235825291830191908301906103af565b979650505050505050565b6000806000606084860312156103e857600080fd5b833567ffffffffffffffff8082111561040057600080fd5b818601915086601f83011261041457600080fd5b81356020828211156104285761042861030c565b61043a601f8301601f19168201610322565b828152898284870101111561044e57600080fd5b8282860183830137600092810182019290925290955086013591508082111561047657600080fd5b5061048386828701610353565b925050604084013590509250925092565b600181811c908216806104a857607f821691505b6020821081036104c857634e487b7160e01b600052602260045260246000fd5b50919050565b6000600182016104ee57634e487b7160e01b600052601160045260246000fd5b5060010190565b601f82111561053f57600081815260208120601f850160051c8101602086101561051c5750805b601f850160051c820191505b8181101561053b57828155600101610528565b5050505b505050565b815167ffffffffffffffff81111561055e5761055e61030c565b6105728161056c8454610494565b846104f5565b602080601f8311600181146105a7576000841561058f5750858301515b600019600386901b1c1916600185901b17855561053b565b600085815260208120601f198616915b828110156105d6578886015182559484019460019091019084016105b7565b50858210156105f45787850151600019600388901b60f8161c191681555b5050505050600190811b01905550565b82815260406020820152600061061d604083018461029c565b94935050505056fea26469706673582212200ef3dd48f1b83a53ab03a56581db43a0ad9df587adc814f99d5b43c78b3f177064736f6c63430008130033",
  "immutableReferences": {},
  "source": "// SPDX-License-Identifier: MIT\r\npragma solidity ^0.8.19;\r\n\r\ncontract LearningPathManager {\r\n    struct LearningPath {\r\n        string name;\r\n        uint256[] courseIds;\r\n        uint256 tokenReward;\r\n        bool isActive;\r\n    }\r\n    \r\n    mapping(uint256 => LearningPath) public learningPaths;\r\n    uint256 public pathCount;\r\n    \r\n    event PathCreated(uint256 pathId, string name);\r\n    event PathCompleted(uint256 pathId, address student);\r\n    \r\n    function createLearningPath(\r\n        string memory name,\r\n        uint256[] memory courseIds,\r\n        uint256 tokenReward\r\n    ) external returns (uint256) {\r\n        pathCount++;\r\n        learningPaths[pathCount] = LearningPath({\r\n            name: name,\r\n            courseIds: courseIds,\r\n            tokenReward: tokenReward,\r\n            isActive: true\r\n        });\r\n        \r\n        emit PathCreated(pathCount, name);\r\n        return pathCount;\r\n    }\r\n}",
  "sourcePath": "C:\\Users\\GHOST\\OneDrive\\Desktop\\edu_tokkenv2\\contracts\\LearningPathManager.sol",
  "compiler": {
    "name": "solc",
    "version": "0.8.19+commit.7dd6d404.Emscripten.clang"
  },
  "schemaVersion": "3.4.16",
  "updatedAt": "2024-11-02T11:31:17.927Z",
  "networkType": "ethereum",
  "devdoc": {
    "kind": "dev",
    "methods": {},
    "version": 1
  },
  "userdoc": {
    "kind": "user",
    "methods": {},
    "version": 1
  }
}